:020000040800F2
:100000003807002031020008D9080008FB07000863
:10001000D5080008D1040008570C000800000000B3
:10002000000000000000000000000000AD09000812
:10003000D50400080000000069090008050B00084D
:100040004B0200084B0200084B0200084B0200085C
:100050004B0200084B020008E9040008690500088B
:100060004B0200084B0200084B0200084B0200083C
:100070004B0200084B0200084B0200084B0200082C
:100080004B0200084B0200084B0200084B0200081C
:100090004B0200084B0200084B0200084B0200080C
:1000A0004B0200084B0200084B0200084B020008FC
:1000B0004B0200084B0200084B0200084B020008EC
:1000C0004B0200084B0200084B0200084B020008DC
:1000D0004B020008710B00084B0200084B0200089D
:1000E0004B0200084B0200084B0200084B020008BC
:1000F0004B0200084B0200084B0200084B020008AC
:100100004B0200084B0200084B0200084B0200089B
:100110004B0200084B0200084B0200084B0200088B
:100120004B0200084B0200084B0200084B0200087B
:100130004B0200084B0200084B0200084B0200086B
:100140004B0200084B0200084B0200084B0200085B
:100150004B0200084B0200084B0200084B0200084B
:100160004B0200084B0200084B0200084B0200083B
:100170004B0200084B0200084B0200084B0200082B
:100180004B0200084B02000800F002F800F041F8B2
:100190000AA090E8000C82448344AAF10107DA45E2
:1001A00001D100F036F8AFF2090EBAE80F0013F0F3
:1001B000010F18BFFB1A43F001031847980F000006
:1001C000B80F0000103A24BF78C878C1FAD8520797
:1001D00024BF30C830C144BF04680C6070470000C1
:1001E0000023002400250026103A28BF78C1FBD840
:1001F000520728BF30C148BF0B607047642900F028
:100200008180002070471FB500F09EFF1FBD10B514
:1002100010BD00F02EF91146FFF7F5FF00F034FE97
:1002200000F04CF903B4FFF7F2FF03BC00F015FD3A
:100230000948804709480047FEE7FEE7FEE7FEE77A
:10024000FEE7FEE7FEE7FEE7FEE7FEE704480549B6
:10025000054A064B70470000090B00088901000899
:100260003801002038070020380300203803002020
:10027000704700000FB41CB5074B06AA7B446946C3
:100280000090059800F0DDF80020694600F0ECF8D9
:100290001CBC5DF814FB0000E90100002DE9F041F1
:1002A0000E460446002020622046E168884730B3AD
:1002B000252805D0D4E901219047206A401CF2E7A7
:1002C000E168204600278847050018D0A5F14100C5
:1002D000192802D820354FF40067324629462046B7
:1002E0002760FFF78BFF40B1012804D0F61D26F0F0
:1002F00007060836D8E7361DD6E72846DAE7206A2B
:10030000BDE8F0812DE9F04106460024106875290A
:10031000314616A510D0AFF30080002802DA404223
:1003200013A507E031688A0701D512A502E0490745
:1003300004D511A5012401E0AFF3008000210A22B9
:1003400006F1240709E0B0FBF2FCB0FBF2F302FB7C
:100350001C00303078541846491C0028F3D123463D
:100360002A463046BDE8F04100F00CB8000000001D
:100370002D0000002B000000200000007047704797
:10038000704770472DE9F0470D469946924604465E
:1003900000F124080168880604D5E06921F0100105
:1003A000216000E00120A84201DD471B00E000279A
:1003B000A1697A1902EB0900081AA0612078C00629
:1003C00002D42046AFF30080002608E0D4E90121E2
:1003D0001AF806009047206A401C761C20624E45A1
:1003E000F4DB2078C0060AD52046AFF3008006E093
:1003F000D4E9012130209047206A401C2062381E39
:10040000A7F10107F4DC07E0D4E9012118F80500A1
:100410009047206A401C2062281EA5F10105F3DCEC
:100420002046AFF300802078000602D50220BDE808
:10043000F0870120FBE7000001694A1C026108788F
:10044000704700B58FB0CDE9013100210591054914
:100450007944CDE9031011466846FFF71FFF0FB03E
:1004600000BD0000E5FFFFFF0A6802F8010B0A600B
:100470007047754600F028F8AE46050069465346B9
:1004800020F00700854618B020B5FFF7DFFEBDE875
:1004900020404FF000064FF000074FF000084FF0EB
:1004A000000B21F00701AC46ACE8C009ACE8C0097C
:1004B000ACE8C009ACE8C0098D4670470446AFF30C
:1004C00000802046FFF7AEFE00487047D8000020AD
:1004D00000BFFEE7704701B502E00098401E0090A3
:1004E00000980028F9D108BD00B585B0012000F0C2
:1004F0008BF820B3142000F0DDFB12480068C830F0
:100500001049086000F06EFC142000F0D3FB0EA22E
:100510000121084600F0A3FC0EA20021032000F0F8
:100520009EFC08480EA102686846FFF7A3FE6A46D3
:100530000221042000F093FC012000F05FF805B0D8
:1005400000BD00000000002046726571204C6F77EE
:100550006572000044656C61792074696D653A00CC
:100560002564206D7300000000B585B0022000F006
:100570004BF800282DD0142000F09CFB1648006892
:10058000C8381549086008460068002801DA0020CC
:10059000086000F027FC142000F08CFB0FA2012162
:1005A000084600F05CFC10A20021032000F057FC7C
:1005B000094810A102686846FFF75CFE6A460221FE
:1005C000042000F04CFC012000F018F8022000F09C
:1005D00015F805B000BD00000000002046726571EE
:1005E000204869676865720044656C6179207469A8
:1005F0006D653A002564206D7300000001490860B4
:1006000070470000143C014001460020034A126874
:100610000A400AB1012000E000207047143C01406C
:10062000002123498279002A3AD00A4612680368D9
:100630009A430B461A600A1D126803689A430B1D01
:100640001A60027911440A6803681A430A60184A5A
:100650000832126803689A43154B08331A601A1D52
:10066000126803689A43124B0C331A604279102ABD
:100670000ED11A1F126803681A430D4B08331A6013
:100680001A1D126803681A43094B0C331A600DE0F7
:100690000749427911440A6803681A430A6005E071
:1006A000027911440A6803689A430A60704700009F
:1006B000003C01400EB50121880300F067F90021DC
:1006C000042000F075F90120009000208DF804004E
:1006D00008208DF8050001208DF806006846FFF718
:1006E0009FFF06208DF8080000208DF809000220E9
:1006F0008DF80A0001208DF80B0002A800F0EEF83A
:100700000EBD0EB50121880300F040F9012104203F
:1007100000F04EF90220009000208DF8040008201F
:100720008DF8050001208DF806006846FFF778FF78
:1007300007208DF8080000208DF8090002208DF8B0
:100740000A0001208DF80B0002A800F0C7F80EBDCA
:10075000F0B50A4600210023002400BF3DE001253A
:1007600005FA01F3156805EA03049C4234D10568D3
:100770004F000326BE40B543056015794E00B540D5
:100780000668354305601579012D02D01579022DD3
:1007900016D185684F000326BE40B5438560557964
:1007A0004E00B540866835438560456801268E4019
:1007B000B5434560456896798E40B6B2354345608D
:1007C000C5684F000326BE40B543C560D5794E00CD
:1007D000B540C6683543C560491C1029BFD3F0BD7C
:1007E0000246002053690B400BB1012000E00020BD
:1007F0007047418370470183704700BFFEE70000E8
:100800001CB50121102000F0B1F80120009000205B
:100810008DF8040003208DF8050002208DF80700F4
:1008200069460248FFF794FF1CBD0000001002401B
:100830001CB50121102000F099F802200090002042
:100840008DF8040003208DF8050002208DF80700C4
:1008500069460248FFF77CFF1CBD00000010024003
:100860001CB50121482000F081F840F60C60009092
:1008700001208DF8040000208DF8060003208DF87B
:10088000050001208DF8070069461048FFF760FF5A
:1008900040F68C610D48FFF7ACFF4FF442500090DA
:1008A00001208DF8040000208DF8060003208DF84B
:1008B000050001208DF8070069460548FFF748FF4D
:1008C0004FF442510248FFF794FF1CBD001802404C
:1008D000000C024000BFFEE77047000070B5002129
:1008E00000230F22C4781CB3174C246804F4E0647E
:1008F000C4F5E064C4F30721C1F10404E3B20A4182
:1009000044789C40E1B28478144021430C07210EC6
:100910000E4C05786155047804F01F050124AC40A5
:1009200005786D11AD0005F1E025C5F8004109E03D
:10093000047804F01F050124AC40054D06787611BB
:1009400045F8264070BD00000CED00E000E400E03A
:1009500080E100E002490143024A11607047000053
:100960000000FA050CED00E07047000029B1064ACE
:1009700012680243044B1A6004E0034A126882437F
:10098000014B1A60704700003038024029B1064A16
:1009900012680243044B1A6004E0034A126882435F
:1009A000014B1A6070470000443802407047000055
:1009B00030B500228B071C0F0F2303FA04F20B4BF8
:1009C0008C1053F824309343084C8D1044F8253094
:1009D00023468C1053F824308C07240F00FA04F4BB
:1009E0002343024C8D1044F8253030BD08380140B7
:1009F0000CB50020019000903448006840F480302D
:100A00003249086000BF3148006800F400300090AF
:100A10000198401C0190009818B90198B0F5A04FBA
:100A2000F1D12A48006800F4003010B10120009094
:100A300001E0002000900098012846D12348403072
:100A4000006840F08050214940310860204800682B
:100A500040F440401E4908601C48083000681B49AB
:100A6000083108600846006840F400400860084605
:100A7000006840F4A05008601648091F0860081F6D
:100A8000006840F08070091F086000BF0F480068D0
:100A900000F000700028F9D040F205700E4908609F
:100AA0000A480830006820F003000849083108604F
:100AB0000846006840F00200086000BF03480830A4
:100AC000006800F00C000828F8D10CBD0038024086
:100AD0000070004008544007003C0240042808D140
:100AE0004FF0E021096941F004014FF0E02211616B
:100AF00007E04FF0E021096921F004014FF0E02206
:100B0000116170477047000010B51548006840F447
:100B10007000134908601348006840F00100114953
:100B2000086000200F49083108600E4800680E492F
:100B300008400C4908600D48091D0860081F00683E
:100B400020F48020091F0860002006490C3108604D
:100B5000FFF74EFF4FF0006001498039086010BD7B
:100B600088ED00E000380240FFFFF6FE1030002460
:100B700010B540F225511D4800F03EF810B31B4857
:100B800000F064F8C4B21A48008800F40040C8B904
:100B90001748008800F4804060B10A2C03D0002080
:100BA0001349088020E01248008840F400401049B2
:100BB000088019E00D2C06D10D48008840F48040D3
:100BC0000B49088010E00A480088C0F30D0009496D
:100BD0000C5407480088401C0549088008460088D6
:100BE000C72801DD0020088010BD00000010014072
:100BF0000C0000201000002070B5024600240023E5
:100C00000025002040F66A16B14200D100BFC1F3B2
:100C1000421501F01F03012606FA03F3012D02D14C
:100C20009689334006E0022D02D1168A334001E056
:100C3000968A33400C12012606FA04F416883440D2
:100C400013B10CB1012000E0002070BD014688887E
:100C5000C0F30800704700BFFEE7014600BF7047C1
:100C600010B500BFFC2000F035FA00F065F8002058
:100C7000B0F5004FF6D010BD10B504466FF004007B
:100C8000FFF72CFFE11704EB5171C1F3C701074ACD
:100C900011701046007800EB4001C1EBC0104FF618
:100CA000FF7101EAC0000249088010BD0400002065
:100CB0000600002070B504464FF4077094FBF0F076
:100CC000C6B24FF4077094FBF0F100FB114085B2FF
:100CD00005E04FF4077000F009F8701EC6B2002E50
:100CE000F7D115B1284600F001F870BD0146114A50
:100CF00012884A434FF0E0235A6100229A611A4653
:100D0000126942F001021A6100BF4FF0E02210693F
:100D100000F001021AB100F48032002AF5D04FF041
:100D2000E022126922F001024FF0E0231A61002252
:100D30009A6170470600002070B500260025002447
:100D40001FE07006060E4FF480412448FFF751FD66
:100D50001920FFF7C0FB4FF480412048FFF74BFDFF
:100D60001420FFF7B8FB4FF480411C48FFF741FD0A
:100D700008211B48FFF734FD08B1701CC6B2601C87
:100D8000C4B2082CDDDB00241FE06806050E4FF41A
:100D900080411248FFF72DFD1920FFF79CFB4FF40F
:100DA00080410E48FFF727FD1920FFF794FB4FF411
:100DB00080410A48FFF71DFD08210948FFF710FD93
:100DC00008B1681CC5B2601CC4B2082CDDDB06F09B
:100DD000F00005F00F010844C0B270BD00140240DD
:100DE0000010024010B5012000F064F910BD10B5EC
:100DF00040F6FF70FFF76FFB302000F05BF90C202E
:100E000000F058F9012000F055F9022000F052F9E5
:100E1000802000F04FF910BD70B505460C46012D3D
:100E200006D0022D09D0032D0CD0042D14D10EE0D4
:100E300044F0800000F03EF90FE044F0900000F034
:100E400039F90AE044F0880000F034F905E044F094
:100E5000980000F02FF900E000BF00BF70BD2DE941
:100E6000F04106460F46144639463046FFF7D4FF98
:100E7000002504E0605D00F057F9681CC5B2605DB4
:100E80000028F7D1BDE8F08186B04FF4A060FFF7ED
:100E900061FDA820FFF7F0FEFFF7E2FC00F0FEF88E
:100EA0001420FFF707FFFFF79DFF0A20FFF702FF5F
:100EB000FFF7A6FCFFF7FEFBFFF7BAFCFFF721FCEC
:100EC00052A201210846FFF7CAFF53A200210320C6
:100ED000FFF7C5FF534854A1026801A8FFF7CAF9FC
:100EE00001AA02210420FFF7BAFF8EE00120504939
:100EF00008604C49098888B2FFF7DCFE00204D49A4
:100F0000C1F8AC024749098888B2FFF7D3FE012037
:100F10004849C1F8A8024349098888B2FFF7CAFEC8
:100F200000204449C1F8A8023E49098888B2FFF769
:100F3000C1FE01203F49C1F8A4023A49098888B29C
:100F4000FFF7B8FE00203B49C1F8A40235490988E3
:100F500088B2FFF7AFFE01203749C1F89C02314942
:100F6000098888B2FFF7A6FE00203349C1F89C0229
:100F70002C49098888B2FFF79DFE01202D49C1F850
:100F80008C022849098888B2FFF794FE002029497D
:100F9000C1F88C022349098888B2FFF78BFE012033
:100FA0002449C1F888021F49098888B2FFF782FEE8
:100FB00000202049C1F888021A49098888B2FFF741
:100FC00079FE01201C49C1F8B4021649098888B28B
:100FD000FFF770FE00201849C1F8B40211490988D2
:100FE00088B2FFF767FE01201349C1F8B0020D492E
:100FF000098888B2FFF75EFE00200F49C1F8B002F1
:101000000849098888B2FFF755FE6FE720204A6F2C
:101010006E6267756100000044656C6179207469D7
:101020006D653A00000000202564206D730000000B
:10103000AC02434200004342008041421CB5012102
:101040006020FFF793FC4FF44040009001208DF8A2
:10105000040000208DF8060003208DF80500012013
:101060008DF8070069460B48FFF772FB02200090DD
:1010700001208DF8040000208DF8060003208DF873
:10108000050001208DF8070069460348FFF760FB63
:101090001CBD0000001402400018024010B5FFF70C
:1010A000CDFF02210248FFF7A6FBFFF7A0FE10BD0F
:1010B0000018024010B50446FFF7D2FDF82000F0FA
:1010C00009F804F0F00000F005F82107080E00F020
:1010D00001F810BD70B50446002520E004F0800042
:1010E000802803D101020F48FFF785FB04F0800040
:1010F00020B94FF400410B48FFF77BFB4FF48041D0
:101100000848FFF776FB2320FFF7E5F94FF480410D
:101110000448FFF770FB6006040E681CC5B2082D7A
:10112000DCDB70BD0014024010B50446FFF798FDEB
:10113000FA20FFF7CFFF04F0F000FFF7CBFF210705
:10114000080EFFF7C7FF10BD4FF04070E1EE100A28
:10115000704700007411000800000020100000001B
:10116000C4010008841100081000002028070000B6
:10117000E0010008F4010000000000000000000091
:04118000000000006B
:040000050800018965
:00000001FF
